:10000000023D470216000100000000021603021420
:100010000EFFFF02160602140EFFFF021609FFFF75
:10002000FFFFFF02160CFFFFFFFFFF02160FFFFF8F
:10003000FFFFFF021612FFFFFFFFFF021615FFFF73
:10004000FFFFFF020BF4FFFFFFFFFF02161BFFFF86
:10005000FFFFFF02161EFFFFFFFFFF021621FFFF3B
:10006000FFFFFF021624FFFFFFFFFF021627FFFF1F
:10007000FFFFFF02162AFFFFFFFFFF02162DFFFF03
:10008000FFFFFFFF1201100100000040C410448078
:100090000001010203010902290001010080640935
:1000A00004000002030000000921110100012217D1
:1000B0000307058103400001070502034000010614
:1000C00000FF0901A10109017508954026FF0015EF
:1000D0000085019501090181020901910285409580
:1000E0000309018102090191020901B102C0000066
:1000F0000000000000000000000000000000000000
:1001000000000000000000000000000000000000EF
:1001100000000000000000000000000000000000DF
:1001200000000000000000000000000000000000CF
:1003D000000000000000040309042A035300690020
:1003E0006C00690063006F006E0020004C0061002B
:1003F00062006F007200610074006F00720069009B
:10040000650073002403550053004200200044009F
:100410006500620075006700200041006400610013
:10042000700074006500720018034500430033003B
:100430003000300030003000420038003000310021
:1004400000000000000000000000000000000000AC
:10045000000000000000000000000000000000009C
:10046000000000000000000000000000000000008C
:10047000000000000000000000000000000000007C
:10048000000000000000000000000000000000006C
:10049000000000000000000000000000000000005C
:1004A00000000000000000000000E59620E7FB755A
:1004B000960EE4F597E59620E7FB759691E5962074
:1004C000E7FB859738E54CB4050DE59620E7FBE49E
:1004D000F596854797F54CE53830E20EE59620E72E
:1004E000FB759611E4F597F54C22E53830E419E5F3
:1004F0009620E7FB759611759708E59620E7FB7542
:100500009611759780E4F54CE54C64027071E538FE
:1005100030E06C7A0079327D04120745E59620E7D9
:10052000FB759611759748E4F54CE5326440704FC1
:10053000E533B4011AE4F536F5370537E5377002CF
:100540000536B4FFF5E536B4FFF043EF108030E533
:1005500033B4020512148B8026E533B403217536BB
:1005600000853437E537753700F536E5354237E431
:10057000AA36A9377BFF8B3A8A3B893C120F6FE57D
:100580004C600302065FE53820E00302065F7A0054
:1005900079447D08120745E547FE7C00E42546F5D1
:1005A00047EC3EF546E549FEE42548F549EC3EF5C5
:1005B00048E54BFEE4254AF54BEC3EF54AE544544C
:1005C0007FFFBF212EE54514700302065F146019FA
:1005D00014700302065F24F9601414700302065FAE
:1005E0002402707812146A807612000E8071120054
:1005F00016806CE544547FFFBF4002805FE545B440
:100600000C00505890060BF828287302062F02069B
:100610003402065C02063902065C02063E0206430C
:1006200002065C02064802064D02065202065712F6
:100630000C84802B120E7D8026120DFA802112125E
:10064000B5801C12074F801712122D8012120F75E1
:10065000800D1212768008120A67800312140EE5CC
:100660004C64016003020738E53830E103020738C3
:10067000E59620E7FB759691E59620E7FB85973890
:10068000E53830E40630E003020738753902C3E587
:100690001D9440E51C94004056E5466422600FE539
:1006A00046B4022012144C401BEF94FB50167D40C0
:1006B0007C00121440121368900531E475F040126A
:1006C0000F2880127D407C0012073974402551F5B7
:1006D00051E43550F55074C0251DF51D74FF351CCF
:1006E000F51C7440251FF51FE4351EF51E802EE510
:1006F000466422600FE546B4021612144C4011EF16
:1007000094FB500CAD1DAC1C1214401213688007F2
:10071000AD1DAC1C120739433908E4F54CE51FB593
:100720004B0BE51EB54A06433908E4F54CE5962027
:10073000E7FB75961185399722AB4FAA50A9517FD7
:1007400020120D11227B007C007F201210B422E5C4
:100750004624DF700302082714700302083C24219A
:10076000B40500400302084A90077675F003A4C55B
:100770008325F0C583730207850207930207CC0225
:1007800007E80207F8754FFF755000755184900017
:100790008480619017FFE493FFD39418400DEF9489
:1007A000FB50081213A112103D8009754FFF7550C0
:1007B00000755196900099E493FE900098E4937C24
:1007C000002400F51DEC3EF51C02084DE54775F0D0
:1007D00003A42410F8860308E6FA08E6F98B4F8A8A
:1007E00050F551120EFD804D754FFF75500075513B
:1007F0009F90009FE493803DE54764816006E54754
:1008000064027046E547B4810E754FFF7550007560
:1008100051B19000B1800C754FFF7550007551B803
:100820009000B8E493800E754FFF7550007551A885
:100830009000A8E493751C00F51D8011120B531253
:10084000103D751C03751D17800312140EE54664D8
:10085000016017E54664026011E5466403600BE53C
:100860004664046005E546B40514C3E54B951DE4F4
:10087000951C500AE54A7006854A1C854B1DE54CBF
:1008800064046008E59620E7FB120FE622E4FFE52A
:100890009620E7FB75960E759702E59620E7FB75A7
:1008A0009694E59620E7FBAE97E54EB4030CE596EB
:1008B00020E7FB75961475972022EE30E60BE5963F
:1008C00020E7FB759614759780E59620E7FB7596F3
:1008D00096E59620E7FBAF97D3E509950BE50895DC
:1008E0000A5013C37458950BCD7402950ACD25098F
:1008F000CD3508FC800BC3E509950BFDE508950A8D
:10090000FCEF24FFFBE434FFFAD3ED9BEC9A500C90
:10091000E59620E7FB75960B75970F227596224397
:1009200096C0E59620E7FBAE97E4FDEDC39E5032FE
:10093000E59620E7FBE50BB4570BE50AB402067A0F
:10094000007B008009E50B2401FBE4350AFA8A0AE2
:100950008B0B74582BF58274023AF583E597F00DF2
:1009600080C9E4FDC3EF9E14FCEDC39C500BE596DB
:1009700020E7FB8597320D80EBE4F596E59620E7BE
:10098000FB759614E4F597E59620E7FB75960B75D5
:10099000970722E59620E7FB75960E759701E59679
:1009A00020E7FB759691E59620E7FBAF97E54DB400
:1009B000030CE59620E7FB75961175971022EF3032
:1009C000E50BE59620E7FB759611759740EF30E251
:1009D0000BE59620E7FB759611E4F597D3E50D95A9
:1009E0000FE50C950E40127458950DCF7402950CBE
:1009F000CF250FCF350EFE800BC3E50F950DFFE51C
:100A00000E950CFE8E2D8F2ED3E52E943FE52D9462
:100A1000004006752D00752E3FE59620E7FB759684
:100A200021852E97E59620E7FBAE0EAF0FE50DB5BD
:100A30000708E50CB50603D38001C3401EE52E155B
:100A40002EAE2D7002152DD39400EE9400400C12A2
:100A500012F38F97E59630E7D080F9E59620E7FB13
:100A600075961175970122E544B40118E54A701492
:100A7000E54B7010E546700CE5477008E5487004DA
:100A8000E549600312140EE54C64046008E5962005
:100A9000E7FB120FFF22FFFF75560B1212231213F2
:100AA0002E8F5312132E8F5412132E8F55E553048D
:100AB000606014B40700507C900ABFF828287302C5
:100AC0000AD4020AF2020AF7020AFC020B01020B24
:100AD00006020B0CE50FB4570BE50EB402067E00C0
:100AE0007F0080031211E51211D67402F0120D542A
:100AF00080AC123CE080A712117C80A2123C0280E4
:100B00009D120D7480981213CC020A9E123DEB02C6
:100B10000A9EE50FB4570BE50EB402067E007F0077
:100B200080031211E51211D674FFF0120D54121247
:100B300000020A9EE50FB4570BE50EB402067E00D4
:100B40007F0080031211E51211D67401F0120D54CA
:100B5000020A9EE4754312F542F541F540753D00E9
:100B6000753EBFF53F121006FF7400253FF582E485
:100B70003400F583EFF0053FE53FB41EE87B0175D7
:100B80003F12E53F64136005E53FB4150712101EE0
:100B9000EBF08009121006FF12101EEFF0E543245F
:100BA00001F543E43542F542E43541F541E4354091
:100BB000F540053FE53FB41EC90BBB40C2753F1E63
:100BC000E47F177E03FDFCAB43AA42A941A840C3C2
:100BD000120F3E501EAF3F053FE53E2F12100AFB9D
:100BE0007840120F4F74002FF58274003EF583EBAE
:100BF000F080CD22C0E0C0F0C083C082C0D075D0EC
:100C000000C000C001C002C003C004C005C006C0CF
:100C100007E59620E7FB759686E59620E7FB859726
:100C20002FE59620E7FB759682E59620E7FB8597F2
:100C300030E59620E7FB759684E59620E7FB8597DF
:100C400031E52F30E203121428E52F30E3031208B8
:100C50008DE53030E0031204AAE53130E2031208DA
:100C60008DE52F30E0031213F3D007D006D005D066
:100C700004D003D002D001D000D0D0D082D083D015
:100C8000F0D0E032E546700EE547700AE54A70069E
:100C9000E54B6402600312140EE544247F601114D6
:100CA000602224027059E5487055E5496011804F73
:100CB000E552B40408E5487004E54960028040123A
:100CC0000FF58031E552B40404E54860028030E558
:100CD00049B4810FE54DB403051210148003120FBF
:100CE000F58012E549B40215E54EB403051210145F
:100CF0008003120FF5751C00751D0280058000121F
:100D0000140EE54C64046008E59620E7FB120FE63C
:100D1000228C3D8D3E8B3F8A408941E53E453D60BA
:100D200032E59620E7FB8F96E4FFFEC3EF953EEE9B
:100D3000953D501FAB3F0541E541AA40700205407B
:100D400014F9120EFDF597E59620E7FB0FBF0001A1
:100D50000E80D82253E6FDAE0EAF0FE50DB50708A5
:100D6000E50CB50603D38001C3400512099380E763
:100D700043E6022285572985582AE4F527F528FD00
:100D8000FC052AE52AAE297002052914F5828E8316
:100D9000E493FEEE6227E4FBFAE52825E0F528E57A
:100DA0002733F52730E7066328216327100BBB00A4
:100DB000010AEB64084A70E10DBD00010CE4B505C1
:100DC000C0ECB402BCE527FFE50FB4570BE50EB449
:100DD00002067C007D0080031212191211EFAF2869
:100DE000E50FB4570BE50EB402067C007D008003CE
:100DF0001212191211EF120D5422E552B40418E523
:100E000044606464016060E546705CE5487058E5E4
:100E10004A7054E54B6002804EE54464027048E538
:100E2000477044E54964816006E54964027038E52D
:100E300049B48118E59620E7FB121036E59620E7C5
:100E4000FB759611759710754D03801EE59620E78A
:100E5000FB75960E759702E59620E7FB759614755F
:100E60009720754E03800312140EE59620E7FB12BF
:100E7000102B6008E59620E7FB120FFF22E552B425
:100E80000418E54460616401605DE5467059E54819
:100E90007055E54A7051E54B6002804BE5446402B1
:100EA0007045E5477041E54964816006E5496402A3
:100EB0007035E549B48115E59620E7FB121036E55B
:100EC0009620E7FB120FFFE4F54D801EE59620E724
:100ED000FB75960E759702E59620E7FB75961475DF
:100EE0009780E4F54E800312140EE59620E7FB127E
:100EF000102B6008E59620E7FB120FFF22BB0106CE
:100F000089828A83E0225002E722BBFE02E3228923
:100F1000828A83E49322BB010689828A83F022506D
:100F200002F722BBFE01F322C5F0F8A3E028F0C5CA
:100F3000F0F8E582158270021583E038F022EB9F0D
:100F4000F5F0EA9E42F0E99D42F0E89C45F02274FB
:100F500001FF3395E0FEFDFC080808E6CF2FF618E8
:100F6000E6CE3EF618E6CD3DF618E6CC3CF6228AF3
:100F7000838982E473E5526402601FE544701BE5D7
:100F8000487017E5497013E54A700FE54B700BE5A3
:100F9000467007E547D39401400512140E8038E5EA
:100FA00047D394004028755204E4F54DF54EE5967C
:100FB00020E7FB121036E59620E7FB759612759731
:100FC00020E59620E7FB75960EE4F59780097552AB
:100FD00003754D03754E03E54C64046008E59620E7
:100FE000E7FB120FFF22759611759740754C01E4CF
:100FF000F51EF51F22754FFF7550007551082275BB
:10100000961175974022E53E253FF582E4353DF582
:1010100083E49322754FFF755000755106227400CA
:101020002543F58274003542F5832275960EE4F56A
:1010300097E54C64042275960E7597012290053051
:10104000E4F0A3F0A3F022751C00751D012253D714
:10105000BC43C91043A91053A9FDE4F5B943B2201C
:1010600000F5B943B9800000000000000000000056
:101070000000000000000000000000000000000070
:101080000000000000000000000000000000000060
:101090000000000000000000000000000043B9C094
:1010A000E5B930E5FB75A90253C9EFE5D754FC4417
:1010B00040F5D7228C3D8D3E8B3F8A408941E53EED
:1010C000453D60538F964396C0E4FFFEE53E24FF06
:1010D000FDE53D34FFFCC3EF9DEE9C501FE59620DF
:1010E000E7FBAB3F0541E541AA407002054014F91A
:1010F000E597120F160FBF00010E80D0E4F596E5BC
:101100009620E7FBAB3F0541E541AA407002054050
:1011100014F9E597120F1622E59620E7FB75960164
:10112000759708E59620E7FB759607759707E5968E
:1011300020E7FB759609759707E59620E7FB7596FE
:101140000B759707E59620E7FB75960E759702E5F8
:101150009620E7FB75961575978075D7E0E5962084
:10116000E7FB75960F75978043E60243F602D2AF10
:10117000E59620E7FB75960175970122C3E5579424
:1011800016501AE50FB4570BE50EB402067E007F29
:101190000080031211E51211D674018034C2AF85AC
:1011A0005882855783758F0375B7A575B7F175FF9D
:1011B0008075EF06E4F0F58FD2AFE50FB4570BE57D
:1011C0000EB402067E007F0080031211E51211D6D4
:1011D000E4F0120D54228E0E8F0F74002FF58274DE
:1011E000003EF58322E50F2401FFE4350EFE228C3C
:1011F0000E8D0F74002DF58274003CF583EFF02204
:10120000750A02750B57750802750957750E027538
:101210000F57750C02750D5722E50F2401FDE435BB
:101220000EFC22E55675580025E0F55722E544B43A
:10123000801AE5467016E5477012E548700EE549DC
:10124000700AE54A7006E54B6401600512140E80D1
:1012500016E552B40406121014121047E552B403F6
:1012600006120FF5121047E54C64046008E596205D
:10127000E7FB120FE622E5526404701FE544B481D7
:101280001AE5467016E5477012E548700EE549709C
:101290000AE54A7006E54B6401600512140E8006EB
:1012A000120FF5121047E54C64046008E59620E73C
:1012B000FB120FE622E5447019E5487015E5497008
:1012C00011E54A700DE54B7009E5467005E54730BC
:1012D000E70312140E754C05E5476005755203804F
:1012E00003755202E54C64046008E59620E7FB12A2
:1012F0000FFF22AE0EAF0FE50DB50708E50CB506E2
:1013000003D38001C34026E50DB4570BE50CB402AE
:10131000067E007F008009E50D2401FFE4350CFE08
:101320008E0C8F0DAE0CAF0D1211DAE0FF22E50925
:10133000650B7004E508650A60F4E509B4570BE530
:1013400008B402067E007F008009E5092401FFE45D
:101350003508FE8E088F09AE08AF0974582FF58244
:1013600074023EF583E0FF228C3D8D3EE53E453D17
:10137000602EE59620E7FB8F96E4FFFEC3EF953ED7
:10138000EE953D501B0BEBAC0270010A14F5828CFC
:1013900083E0F597E59620E7FB0FBF00010E80DCA8
:1013A000227E007F96E4FDEF2DF582E43EF583E496
:1013B00093FC74002DF582E43400F583ECF00DBD50
:1013C00029E59017FFE493900008F022AF54EFFE58
:1013D000E555F5828E83E493FFE50FB4570BE50ED8
:1013E000B402067C007D0080031212191211EF1264
:1013F0000D5422AFE8AED1E4F5E8C2AFF5D153E227
:10140000BF12104E43E2408FE88ED1D2AF22E59654
:1014100020E7FB75960EE4F597E59620E7FB7596B9
:1014200011759720754C0422755202E59620E7FB52
:10143000759601759701E4F54C754D03754E0322C1
:10144000900530A3E0FAA3E0FB7F20229017FFE491
:1014500093FFD39418220C10FF03D6FF03DAFF0486
:1014600004FF0428034C00000000E54C6404600BFA
:10147000E59620E7FB120FFF754C022253D9BF12ED
:101480001200123DD3121118020A98A98177391956
:1014900077D63222FFFFFFFFFFFFFFFFFFFFFFFFB7
:1014A000FFFFFFFFFFFFFFFFFFFFFFFFFFFFFFFF4C
:1014B000FFFFFFFFFFFFFFFFFFFFFFFFFFFFFFFF3C
:1014C000FFFFFFFFFFFFFFFFFFFFFFFFFFFFFFFF2C
:1014D000FFFFFFFFFFFFFFFFFFFFFFFFFFFFFFFF1C
:1014E000FFFFFFFFFFFFFFFFFFFFFFFFFFFFFFFF0C
:1014F000FFFFFFFFFFFFFFFFFFFFFFFFFFFFFFFFFC
:10150000FFFFFFFFFFFFFFFFFFFFFFFFFFFFFFFFEB
:10151000FFFFFFFFFFFFFFFFFFFFFFFFFFFFFFFFDB
:10152000FFFFFFFFFFFFFFFFFFFFFFFFFFFFFFFFCB
:10153000FFFFFFFFFFFFFFFFFFFFFFFFFFFFFFFFBB
:10154000FFFFFFFFFFFFFFFFFFFFFFFFFFFFFFFFAB
:10155000FFFFFFFFFFFFFFFFFFFFFFFFFFFFFFFF9B
:10156000FFFFFFFFFFFFFFFFFFFFFFFFFFFFFFFF8B
:10157000FFFFFFFFFFFFFFFFFFFFFFFFFFFFFFFF7B
:10158000FFFFFFFFFFFFFFFFFFFFFFFFFFFFFFFF6B
:10159000FFFFFFFFFFFFFFFFFFFFFFFFFFFFFFFF5B
:1015A000FFFFFFFFFFFFFFFFFFFFFFFFFFFFFFFF4B
:1015B000FFFFFFFFFFFFFFFFFFFFFFFFFFFFFFFF3B
:1015C000FFFFFFFFFFFFFFFFFFFFFFFFFFFFFFFF2B
:1015D000FFFFFFFFFFFFFFFFFFFFFFFFFFFFFFFF1B
:1015E000FFFFFFFFFFFFFFFFFFFFFFFFFFFFFFFF0B
:1015F000FFFFFFFFFFFFFFFFFFFFFFFFFFFFFFFFFB
:10160000023192023802FFFFFFFFFFFFFFFFFF02E0
:101610001CA990054CE0FCA3E0FDA3E0FEA3E0FFC5
:1016200022900547E0FCA3E0FDA3E0FEA3E0F52443
:101630008E238D228C212212399DA2219294A29177
:101640002290054BF07F007E007D007C0022123945
:101650009DA2229294A2912212399DA2239294A239
:10166000912212399DA2249294A2912212399DA214
:10167000259294A2912212399DA2269294A291229F
:1016800012399DA2279294A2912212399DA21892FA
:1016900094A2912212399DA2199294A291221239F8
:1016A0009DA21A9294A2912212399DA2299294A2EB
:1016B0009122E478A0F6900534E0540FF0228F25B3
:1016C000A2289294A29122A2209294A29122EFF0B9
:1016D000900534E0FF7D832212399DA21B9294A2D3
:1016E000912212399DA22A9294A29122AF24AE2374
:1016F000AD22AC2102212AE4F0A3F0A3F0A3F02252
:101700009294A291920F7858E622900550E0FF90B3
:101710000552E0C39F22E6C3137994F708E6130944
:10172000F722900534E0FF7D8022E0FDC374039D25
:10173000FDE49400FC22E6FC08E6FDC3EF9DEE9C70
:101740002212399DC294E422F0E0FEA3E0FF22E0E1
:10175000FFA3E0C39F22EFF0123401E02212399D73
:10176000A21C9294A2912212399DA22B9294A29132
:101770002212399DA22C9294A29122AE0790053498
:10178000E0FFAD0622121BB3121BB3900564EFF00D
:10179000121BB3900563EFF06006E0D3941840038A
:1017A0007F0022E4900565F0121BB39005651217C7
:1017B0002A745F2DF58274053CF583EFF090056582
:1017C000E004F0E0C3940340DF786D7C057D017B8D
:1017D000017A05795F7E007F041220B8900563E0EE
:1017E000900571F0900564E0FF122DDD7F0D22AEB3
:1017F0000790057CE0FF1238F7AF06023897FFFF2D
:101800000239D0121B0AE50FB4570BE50EB40206DD
:101810007E007F0080031233A88E0E8F0F74002F7E
:10182000F58274003EF583740CF0121BEDAE0AAF26
:101830000BE509B50708E508B50603D38001C340E9
:1018400006121850121BED78A1E6FF121C6B80DD0A
:10185000C2AD121BB378A2EFF6C39420402AE694DF
:10186000FE5025D28353A5BF439040A2959292C2C9
:101870008243A504C28343A540D2A153A5EF439060
:1018800010A28092A012339D78A2E6240270030277
:101890001ABC147003021AC514B440004003021AA3
:1018A000CA9018A8F8282873021968021ACA0219DF
:1018B0006E02197402197A021ACA02198002198674
:1018C00002198C02199202199802199E0219A40297
:1018D00019AA0219B00219B60219BC0219C20219DA
:1018E000C80219CE0219D40219DF0219EB021ACA72
:1018F0000219F10219F70219FD021ACA021ACA02E4
:101900001ACA021ACA021ACA021A03021A09021AC7
:101910000F021A15021A1B021A21021A27021A2D87
:10192000021A33021A3B021A42021A49021A5002E0
:101930001A55021A5A021A61021A68021A6D021A1C
:1019400072021A77021A7C021A81021A86021A8B14
:10195000021A90021A95021A9A021A9F021AA402F7
:101960001AA9021AAE021AB51238B9021ABF122900
:1019700031021ABF123590021ABF12384E021ABF36
:101980001223B1021ABF122B39021ABF1231E2021E
:101990001ABF123951021ABF12303B021ABF12335A
:1019A0001E021ABF123232021ABF121785021ABF64
:1019B000123757021ABF12390B021ABF1236F7023A
:1019C0001ABF122BD8021ABF122FDD021ABF12350E
:1019D000D2021ABFE4900538F0123873021ABF9091
:1019E00005387401F0123873021ABF12287D021AEA
:1019F000BF1234C9021ABF122E5B021ABF12372758
:101A0000021ABF1232D1021ABF1238D7021ABF12FD
:101A10003923021ABF123282021ABF1237D9021AB0
:101A2000BF12350C021ABF123829021ABF123964CC
:101A3000021ABF7F0912262F021ABF7F0A1226FA46
:101A4000807D7F0B12262F80767F0C1226FA806F06
:101A5000122C5D806A122D5F80657F0612262F8012
:101A60005E7F071226FA805712365180521233B227
:101A7000804D122A8F80481227C18043122CDF80AC
:101A80003E123097803912354E8034123485802FC3
:101A90001239A4802A1239BE80251239B180201251
:101AA00039C7801B12378380161237AE80117F0E24
:101AB00012262F800A7F0F1226FA8003121C467806
:101AC000A3A60780091239D68004E478A3F678A289
:101AD000E6FFC394204025EF94FE5020D28253A508
:101AE000FB439004D28353A5BF439040D28453A6B6
:101AF000FE43A001D2A153A5EF439010D2ADEFF465
:101B0000600778A3E6FF121BF42253F6FD121B595F
:101B100053A0F7121C88121B43D2EFE4FFFE0FBF45
:101B200000010EBE3FF8BFFFF5121C5A12336812B7
:101B30001B90E4FFFE121C8F12339DE478A1F6FF88
:101B4000021C6B75E84075BB1075BA1F75BC40531D
:101B5000BCFB75D10353E6F72253E2BF7580BF7516
:101B6000A44275F17F7590F675A55875F2FF900542
:101B700035E044F3F5A0E4F5A675F3FF75B0FEF586
:101B8000A7F5F475D481F5D5F5D6F5E175E24122D6
:101B900075D90890053DE0FFF5FB8FFC75DA4275BD
:101BA000D8407F0C7EFE121D745380DF53F3FB750B
:101BB000BB0A22E509650B7004E508650A60F4E5D7
:101BC00009B4570BE508B402067E007F008009E5E2
:101BD000092401FFE43508FE8E088F09AE08AF091D
:101BE00074582FF58274023EF583E0FF227A0D7956
:101BF000540221369005AFEFF0E50FB4570BE50E18
:101C0000B402067E007F0080031233A8EFB50D07F3
:101C1000EEB50C03121BED9005AFE0FFE50FB457D6
:101C20000BE50EB402067C007D008009E50F24015F
:101C3000FDE4350EFC8C0E8D0F74002DF5827400C2
:101C40003CF583EFF022121BB3900535EFF06004F2
:101C5000E0B408037F0D227F0222C2EDD2EC30ED0A
:101C6000FDC2EDE5BE5403FEAFBD22EF24FE600AC7
:101C700004700E5380BF439008225390F743804076
:101C8000225380BF5390F722758901438E0222E4CC
:101C9000F5C8538E9FC39FFFE49EF5CB8FCA74FF98
:101CA000F5CDF5CCD2ADD2CA22C0E0C0F0C083C021
:101CB00082C086758600C0D075D000C000C001C04B
:101CC00002C003C004C005C006C007C2CF900533E0
:101CD000E004F0E0641F703CA2A1339005B0F0D2A4
:101CE000A175BB107FDB7EFF121D74121C5A90057C
:101CF0003BE06E7003A3E06F600312336890053D14
:101D0000E0F5FC75BB0A9005B0E01392A190053395
:101D1000E4F08043121C5A900536EEF0A3EFF090E9
:101D2000053BE0FCA3E0FDC39FEC9E500CA3E0C389
:101D300094FF5005E004F08018C3900537E09D90B3
:101D40000536E09C500B90053DE094004003E01404
:101D5000F090053DE0F5FCD007D006D005D004D0CA
:101D600003D002D001D000D0D0D086D082D083D092
:101D7000F0D0E0325388CF8F8AEEF58CD28C308D44
:101D8000FDC28CC28D225388CFE4F58AF58CD28CAB
:101D900022021FD3E86480F8E933E833601104605D
:101DA000F0ED33EC337009E8FCE9FDEAFEEBFF22CD
:101DB0000460DED3EB9FEA9EE99DE8C2E78CF0C2A7
:101DC000F795F0400CE8CCF8E9CDF9EACEFAEBCF84
:101DD000FB121F9E85D0F05804700320D5B3E80491
:101DE00070075002B2D5021FDD92D5EC0460F7E413
:101DF000CCC0E0C398F8603B94186008400DD0E078
:101E0000FB021FB5E4FBFAC9FC8028E830E406E4D5
:101E1000C9FBE4CAFCE830E305E4C9CACBFCE854DA
:101E2000076010F8C3E913F9EA13FAEB13FBEC139C
:101E3000FCD8F130F52FC3E49CFCEF9BFFEE9AFE3B
:101E4000ED99FDD0E0FBEF4E4D4C701222DB03020A
:101E50001FDAEC2CFCEF33FFEE33FEED33FDED30FB
:101E6000E7EB021FB5EF2BFFEE3AFEED39FDD0E0B8
:101E7000FB50130BBB0003021FDDED13FDEE13FE41
:101E8000EF13FFEC13FC021FB5021FDDEC5D0460D5
:101E900005E859047003021FD3121F9E580460F610
:101EA000EC4860F2EC7004FDFEFF22C860DB248188
:101EB000C85009C39860025006021FDA9850CAF54C
:101EC00082E9294B4A7005AB82021FC975F0007C7C
:101ED0001A7880C3EF9BEE9AED99400DC3EF9BFFFC
:101EE000EE9AFEED99FDE842F0DC23ACF0D0E0FF85
:101EF000D0E0FED0E0FDAB8220E7101BEB60BAEC37
:101F00002CFCEF33FFEE33FEED33FD021FB5E8038B
:101F1000F830E705C0F075F000EF2FFFEE33FEED6F
:101F200033FD40B830E7C280AA75F020800E75F00E
:101F300010800575F0087D007E007F003392D5305B
:101F4000D5031220DEEC334010EF33FFEE33FEED0D
:101F500033FDEC33FCD5F0ED22E5F0247EA2D51361
:101F6000CC92E7CDCEFF22EDD2E7CD33EC3392D544
:101F700024814006E4FFFEFDFC22FCE4CFCECDCC64
:101F800024E0501174FF80EDC3CC13CCCD13CDCE23
:101F900013CECF13CF0470F030D5DE0220DEE9D2AD
:101FA000E7C933E833F892D5EDD2E7CD33EC33FC13
:101FB0005002B2D522EC30E7100FBF000C0EBE006D
:101FC000080DBD00040BEB6014A2D5EB13FCED92E1
:101FD000E7FD2274FFFCFDFEFF22E480F8A2D57429
:101FE000FF13FC7D80E480EFE709F608DFFA804606
:101FF000E709F208DFFA803E88828C83E709F0A3C4
:10200000DFFA8032E309F608DFFA8078E309F208A4
:10201000DFFA807088828C83E309F0A3DFFA8064A2
:1020200089828A83E0A3F608DFFA805889828A834E
:10203000E0A3F208DFFA804C80D280FA80C680D418
:10204000806980F28033801080A680EA809A80A820
:1020500080DA80E280CA803389828A83ECFAE49352
:10206000A3C8C582C8CCC583CCF0A3C8C582C8CCE0
:10207000C583CCDFE9DEE7800D89828A83E493A300
:10208000F608DFF9ECFAA9F0EDFB2289828A83ECED
:10209000FAE0A3C8C582C8CCC583CCF0A3C8C5826A
:1020A000C8CCC583CCDFEADEE880DB89828A83E4A2
:1020B00093A3F208DFF980CC88F0EF60010E4E6048
:1020C000C388F0ED2402B4040050B9F582EB240279
:1020D000B4040050AF232345822390203873C3E417
:1020E0009FFFE49EFEE49DFDE49CFC22E8600FEC73
:1020F000C313FCED13FDEE13FEEF13FFD8F122E83E
:10210000600FEFC333FFEE33FEED33FDEC33FCD84D
:10211000F122E6FC08E6FD08E6FE08E6FF22ECF602
:1021200008EDF608EEF608EFF622ECF0A3EDF0A3CA
:10213000EEF0A3EFF0228A838982E47390054712C0
:10214000212A123996121741FB7855E6FFEBC39FFF
:10215000500612399D0B80F190054BE0FA640A702D
:102160003F1216211216C792161216379217121620
:102170004E92081216589209121662920A12166CA2
:10218000920B121676920C121680920D12168A92EB
:102190000E121694920F7858E67002D2A0022321F4
:1021A000EA640B70441216211216C79215121637E4
:1021B000921612164E921712165892081216629222
:1021C0000912166C920A121676920B121680920C55
:1021D00012168A920D121694920E12169E920F7873
:1021E00058E67002D2A002232190054BE0FA641356
:1021F000600302227C121621A21D9228A21E92299F
:10220000A21F922AA210922BA211922CA212922DFE
:102210001216C7921D121637921E12164E921F12D8
:1022200016589210121662921112166C9212121611
:10223000769213121680921412168A921512169420
:10224000921612169E92171216D8920812175D92C5
:102250000912399D1216C0920A1216A8920B121674
:10226000E2920C121767920D121771920E12399D9D
:10227000A22D1217007002D2A0022321EA6414607A
:102280000302232C121621A21C9228A21D9229A21D
:102290001E922AA21F922BA210922CA211922DA262
:1022A00012922EA213922F1216C7921C1216379258
:1022B0001D12164E921E121658921F12166292107E
:1022C00012166C9211121676921212168092131236
:1022D000168A9214121694921512169E92161216BF
:1022E000D8921712399D1216C092081216A8920998
:1022F0001216E2920A121767920B121771920C12C1
:10230000399DA22D9294A291920D12399DA22E92E6
:1023100094A291920E12399DA22F1217007002D230
:10232000A012399D90054C1216EC8064E490054C87
:102330001216F8FB90054BE0FAEBC39A5052900549
:1023400047A3A3A3E05401FFEF24FF929490054715
:10235000E0FCA3E0FDA3E0FEA3E0FF78011220EC87
:1023600090054712212A12161278011220EC9005CE
:102370004C12212A30910790054CE04480F0EA1479
:10238000B503077858E67002D2A012399D0B80A4DD
:10239000C294E4FB7858E6FFEBC39F500DEF14B5F1
:1023A0000302D2A012399D0B80EA1239981216123C
:1023B00022121BB3121BB3900557EFF09005567411
:1023C00002F0121BB3900550EFF078A0E6640160B4
:1023D00012E4900552F012170A500512247D80F67F
:1023E0007F0122900550E07011900552F012170AFB
:1023F000500512247D80F67F0022900556E0FEA352
:10240000E0FF122F7E900550E0FF5401FE9005552D
:10241000F0EFC313900551F0EE6003E004F0900577
:1024200051E0900554F09005537405121748122F8F
:102430007EE4900552F0900551E014FFA3E0C39FA5
:102440005013122469900554E0FF121BF4900552BA
:10245000E004F080E1122469900555E070089005D1
:1024600054E0FF121BF47F0D2212368B900553EEC1
:10247000F0A3EFF0900553E0FF121BF422E4FF12EB
:102480001BF4900552E004F022EFFEEDFFE48F24F0
:102490008E23F522F521D2A012399D1239981239D6
:1024A0009DD294FFFE7853121736500A12399D0FB1
:1024B000BF00010E80EF1216C7922012163792212C
:1024C00012164E922212165892231216629224125B
:1024D000166C9225121676922612168092271216E4
:1024E0008A9218121694921912169E921A1216D8DF
:1024F000921B12175D921C12399DA21D9294A291FB
:10250000921D12399DA21E9294A291921E12399D83
:10251000A21F9294A291921F7857E618467002D299
:10252000A012399D90059B1216ECD294E4FEFF7820
:1025300056121736501DE624FFFD18E634FFFCED59
:10254000B50706ECB50602D2A012399D0FBF0001F7
:102550000E80DC12399890059B12161522C2AFC26C
:1025600094D294D2AFC2AFC294D294D2AF8F20A2F1
:10257000009296C2AFC294D294D2AFA2019296C2F8
:10258000AFC294D294D2AFA2029296C2AFC294D2FA
:1025900094D2AFA2039296C2AFC294D294D2AFA209
:1025A000049296C2AFC294D294D2AFA2059296C2C0
:1025B000AFC294D294D2AFA2069296C2AFC294D2C6
:1025C00094D2AFA2079296C2AFC294D294D2AF2255
:1025D000900539E0FF640F22C2A143A51078A076D0
:1025E0000178A1760222A60778A0E6640122D283B0
:1025F00053A5BF439040227959E7C3785A96227970
:102600005EE7C3785F9622D2A153A5EF43901022D4
:1026100090053AE0640122900579F090057804F085
:1026200090057B2253A6F7900535E0F452A0229046
:1026300005A2EFF0640E6004E0B406047F0180029E
:102640007F009005A3EFF0121BB3785CA6079005FE
:10265000A3E06007121BB3785BA607121BB3785A7E
:102660001225E66011E47859F61225F75005122676
:10267000E780F67F01229005A2E0FF12397612264C
:10268000F0600EE47859F61225F750561226E780CE
:10269000F69005A3E06007785BE6FF123976785C78
:1026A000E6FF123976785AE6FF1239769005A2E0F5
:1026B0006406701A1226F06015E47859F61225F7B0
:1026C000500AE4FF121BF478590680F18014E47874
:1026D00059F61225F7500B123988121BF478590657
:1026E00080F0785DE6FF22E4FF121BF478590622A1
:1026F000123988785DEFF6640D229005A4EFF0643E
:102700000F6004E0B407047F0180027F009005A5FC
:10271000EFF0121BB37861A6079005A5E0600712E1
:102720001BB37860A607121BB3785F1225E6601111
:10273000E4785EF61225FF50051227B080F67F017F
:10274000229005A4E0FF1239761227B7600EE478D4
:102750005EF61225FF50541227B080F69005A5E0D2
:1027600060077860E6FF1239767861E6FF12397605
:10277000785FE6FF1239769005A4E06407701812BE
:1027800027B76013E4785EF61225FF5008121BB3DA
:10279000785E0680F38014E4785EF61225FF500B15
:1027A000121BB3123976785E0680F07862E6FF225B
:1027B000121BB3785E06221239887862EFF6640D38
:1027C00022121BB37871760008A607121BB3EF78AC
:1027D0007146F608E6F6121BB37874A6071230EEBF
:1027E000EF20E61D1226106018E47873F67973E77F
:1027F000C37874965008121BB378730680EF7F037A
:102800002290053AE0B4010D43A60843A0087FFBDF
:102810007EFF121D747871E6FE08E6FF1234401246
:1028200025D06004EFB412057F011217EF90057BED
:10283000E0FF1238F7E47873F67973E7C37874969B
:102840005020121D86D2A9121BB3123897C2A912AA
:102850001D86D2A91230EEEF20E7F9C2A9787306DF
:1028600080D790053AE0B401031226241225D060E7
:1028700004EFB41205E4FF1217EF7F0D22121BB311
:1028800090056AEFF09005661216F790056BF090D0
:10289000056A12174F501D121BB390056B12172AB1
:1028A00074662DF58274053CF583EFF090056BE0BE
:1028B00004F080DB90056AE0FED3940440037F00BF
:1028C00022900538E07029EEC3940250037F002265
:1028D000900568E0900534F0E0FF60047E0280021D
:1028E0007E0178A1A606900569E0FD122489801179
:1028F0009005661216159005AEE090054BF012217A
:102900003C787912211EE490056BF090056AE0FF97
:10291000A3E0FEC39F5017EEFDC3EF9DFF74782F19
:10292000F8E6FF121BF490056BE004F080DD7F0DEC
:1029300022121BB3121BB390058AEFF09005897425
:1029400002F0121BB37890A60778A0E66401601924
:10295000E4900588F0900588E0C37890965007E4ED
:10296000FF1229D780EF7F0122900589E0FEA3E0C6
:10297000FF122F7E7890E630E006C31304FF800636
:102980007890E6C313FF900587EFF07892F61876FB
:1029900003E6FE08E6FF122F7E9005887401F09092
:1029A000058712174F500C1229C67892E6FF12299C
:1029B000D780EC1229C67890E620E0077892E6FFEF
:1029C000121BF47F0D2212368B7891A60608A607FB
:1029D00018E6FF121BF422121BF4900588E004F0A5
:1029E00022123996121741FB7855E6FCEBC39C5036
:1029F0000612399D0B80F1EDB4010E1216BE922F16
:102A00007858E67037D2A08033ED64027013121646
:102A1000BE922E1216A8922F7858E67002D2A0808D
:102A20001BED6403701D1216BE922D1216A8922E75
:102A30001216E2922F7858E67002D2A012399DAE9B
:102A400025802CE4FEFBEBC39D5024EF139294EF02
:102A5000C313FFEEC313FE3091034480FEED14B5A3
:102A600003077858E67002D2A012399D0B80D7C2B6
:102A700094E4FB7858E6FFEBC39F500DEF14B503C9
:102A800002D2A012399D0B80EA123998AF062212A9
:102A90001BB3786D760008A607121BB3EF786D465E
:102AA000F608E6F6121BB37870A6071230EEEF2098
:102AB000E61F122610601AE4786FF6796FE7C37884
:102AC0007096500AE4FF121BF4786F0680ED7F03C6
:102AD00022786DE6FE08E6FF123440900539E06486
:102AE0000F6010A3E06401600A7FB61238F77F40E0
:102AF0001238971225D06004EFB412057F01121727
:102B0000EF90057BE0FF1238F7E4786FF6796FE716
:102B1000C37870965012122F1F121BF41230EEEF72
:102B200020E7F9786F0680E51225D06004EFB41233
:102B300005E4FF1217EF7F0D22121BB390055EEF25
:102B4000F090055D7402F0121BB3900558EFF07819
:102B5000A0E6B40104E030E02AE490055AF09005C4
:102B600058E0FF90055AE0C39F500B121BB390052D
:102B70005AE004F080E8900558E030E0037F00223E
:102B80007F012290055DE0FEA3E0FF122F7E9005FD
:102B900058E0C313A3F090055CF090055B74081235
:102BA0001748122F7EE490055AF090055912174FDE
:102BB0005023121BB390055BEFF0121BB390055C22
:102BC000EFF090055BE0FEA3E0FF122F7E90055A28
:102BD000E004F080D57F0D22900546740DF0121BA5
:102BE000B3121BB3900543EFF0121BB390054212D2
:102BF00016CE1224891236C5900542E07002A3E079
:102C000070037F0D22E4900544F0A3F0900542E0AC
:102C1000FEA3E0FFC3900545E09F900544E09E5071
:102C2000361236C590053E12212A90053FE05480A9
:102C3000FFBF010BE490053EF09005467403F09051
:102C4000053EE0FF121BF4900545E004F070BD90D6
:102C50000544E004F080B5900546E0FF22121BB366
:102C60007866A607121BB37865A607121BB37865B2
:102C70001225E6601AE47863F67963E7C37865960F
:102C8000500AE4FF121BF478630680ED7F0122E412
:102C90007864F67964E7C3786596503E7F09123907
:102CA000761239887867EFF6640D6017E47863F67A
:102CB0007963E7C37865965021E4FF121BF47863CB
:102CC0000680ED7866E6FF1239767F0112397612BA
:102CD0003988121BF478640680B97867E6FF227F92
:102CE000021238F77F021238977F05123897E4FFF7
:102CF0001238F7122F1F900539EFF01231417FD9AA
:102D00001238F7E4FF1238977FB71238F77FA51211
:102D100038977FF11238971225D06004EFB412056E
:102D20007F011217EF7FDF1238F77FAD123897124D
:102D300025D06004EFB41205E4FF1217EF1230EE55
:102D4000EF20E7F99005347405F01225DD1230EE1E
:102D5000EF20E60812261060037F03227F0D221267
:102D60001BB3786BA607121BB3786AA607121BB3B6
:102D7000786A1225E66018E47868F67968E7C3781F
:102D80006A965008121BB378680680EF7F0122E430
:102D90007869F67969E7C3786A96503C7F0A1239F8
:102DA00076123988786CEFF6640D6015E47868F671
:102DB0007968E7C3786A96501F121BB3786806805B
:102DC000EF786BE6FF1239767F01123976121BB36A
:102DD00012397678690680BB786CE6FF2212177B81
:102DE000122489900571E0FDB4080590056F8007F5
:102DF000EDB4100990056EE04403F0804790057132
:102E0000E0B4110990056EE04406F0803790056D3E
:102E1000E0F8A3E0F9A3E0FAA3E0FBC000C001E4FE
:102E20007F03FEFDFC900571E0F9F81220FFD00150
:102E3000D000EB4FFFEA4EFEE94DFDE84CFC90055B
:102E40006D12212A900571E0240290054BF0900547
:102E50006D12161512213C12340122121BB3121BE3
:102E6000B37893EFF6700CFF121BF4E4FF121BF41F
:102E70007F0222E47894F608F6FD7893E6FFEDC32E
:102E80009F5029209612D2960812171630800518E6
:102E9000E64480F6C2968011C296D29678941217B4
:102EA0001630800518E64480F60D80CE7895E6FF52
:102EB000121BF47894E6FF121BF47F0D229005821A
:102EC000EFF0122F08E020E7F9E4F0A3F0A3740379
:102ED000F0900582E0900586F0900583121615901B
:102EE000054B740AF012213C123401122F08E02025
:102EF000E7F97D03E4FF1229E190058312175630AC
:102F0000E7037F03227F0D227D027F021229E11257
:102F100034017D02E4FF1229E1900583EFF02212D3
:102F200025C7C28343A540C2961225C71225C712E2
:102F300025C71225C7C2961225EE1225C73095FA6D
:102F40001225C7A29592001225C7A29592011225BB
:102F5000C7A29592021225C7A29592031225C7A275
:102F60009592041225C7A29592051225C7A29592A3
:102F7000061225C7A29592071225C7AF20229005F9
:102F800072EEF0A3EFF01217221224891233FA0D19
:102F9000E4FF1229E190057412175620E7EE900520
:102FA00072E0FEA3E0FFE4FCFDA312212A90057469
:102FB00012161578021220FFEF4402FFEC90057400
:102FC00012212A900575E0440CF090057412161534
:102FD00090054B7414F012213C12340122900581AB
:102FE000740DF0121BB3121BB390057EEFF0121B91
:102FF000B390057D1216CE122489E490057FF0A3CC
:10300000F090057DE0FEA3E0FFC3900580E09F9077
:10301000057FE09E501F121BB3122EBDBF0306900A
:1030200005817403F0900580E004F070D490057F72
:10303000E004F080CC900581E0FF22121BB39005E4
:1030400034E0FF7D04122489742012164112213CC1
:10305000787D12211E7880E6C313FF121BF4787F5F
:10306000E6540FC313FF121BF4787D12211278046B
:103070001220EC787D12211E787FE6FF121BF47877
:103080007EE6FF121BF4787DE6540FFF121BF47FDF
:103090000C121BF47F0D22121BB3EFF8E4799BF79F
:1030A000E825E019F71230EEEF20E608122610604E
:1030B000037F0322789AE6FE08E6FF1234401225C9
:1030C000D06004EFB412057F011217EF7FDF1238D2
:1030D000F77FDE1238971225D06004EFB41205E4B2
:1030E000FF1217EF1230EEEF20E7F97F0D221225C5
:1030F000C7C296C28343A5401225C7D2961225C7E0
:103100001225EE1225C7A29592001225C7A295920C
:10311000011225C7A29592021225C7A29592031209
:1031200025C7A29592041225C7A29592051225C71C
:10313000A29592061225C7A29592071225C7AF2025
:1031400022E490053AF0900539E0FFB40F1574B60B
:1031500012261774B5F090057A74ADF090057C7462
:10316000BFF02274AE12261774BFF090057A74B4C3
:10317000F090057C74A7F0EFB40B037497F0900502
:1031800039E0FF64106004EFB4130690053A74014F
:10319000F022C0E0C0F0C083C082C086758600C047
:1031A000D075D000C000C001C002C003C004C0057B
:1031B000C006C007C2A8121D86208006308DFA53B3
:1031C00088CF1225D8D007D006D005D004D003D0A0
:1031D00002D001D000D0D0D086D082D083D0F0D021
:1031E000E032121BB3121BB390059FEFF078A0E6FC
:1031F0006401600DE4FF121BF4E4FF121BF47F0175
:103200002290059FE09005A1F09005A07409121787
:1032100048122F7E12368B9005A0EEF0A3EFF090AF
:1032200005A0E0FF121BF49005A1E0FF121BF47F44
:103230000D22121BB3121BB39005A8EFF0121BB3A3
:10324000AE07EE6005D3941840037F00229005A8D6
:10325000E0FFAD06123612788112211EE49005A916
:10326000F09005A9E0FFC394035014C374029F2497
:1032700081F8E6FF121BF49005A9E004F080E27FDC
:103280000D2278A0E6640160061232BB7F01227F26
:10329000011232C6BF0D08123988121BF4800512C4
:1032A00032BB80127F021232C6BF0D0512398880F0
:1032B00002E4FF121BF47826E6FF22E4FF121BF45F
:1032C000E4FF121BF4221239761239887826EFF6C1
:1032D0002212393A9005347402F0FF1238F7900543
:1032E00034E0FF1238979005347404F0FF123897D9
:1032F0007FF47EFF121D749005347401F0FF1238C4
:10330000977FF07ED8121D74E4FF1238F7122F1F3A
:10331000900539EFF01231411225DD7F0D22900525
:10332000931216F7121BB3121BB3900534EFF06023
:103330000478A07601121BB378A8EFF6900534E06C
:10334000C454F0FEF0EF540325E025E0F64EF060A3
:10335000047F0280027F0178A1A607900534E0FF78
:103360007D041224897F0D2290053BEEF0A3EFF03F
:10337000FDAC06E4121F2E7B337A3379B37840120A
:103380001E8CA804A905AA06AB07E4FFFE7D7F7C7E
:1033900043121D94121F6790053DEFF022C2844333
:1033A000A601C2A143A51022E50F2401FFE4350EBA
:1033B000FE22121BB378981225E6600DE4FF121B63
:1033C000F4E4FF121BF47F01227F051239761239D3
:1033D000887899EFF6640D6009E4FF121BF4E4FFAE
:1033E00080107898E6FF123976123988121BF41291
:1033F0003988121BF47899E6FF227D027F02122998
:10340000E1123996121741FF7855E6FEEFC39E5040
:103410000612399D0F80F11217027002D2A01239E4
:103420009DE4FF7858E6FEEFC39E500DEE14B507FD
:1034300002D2A012399D0F80EA123998200FC222C1
:103440009005A6EEF0A3EFF01225D06004EFB412C1
:10345000057F011217EF900579E0FF1238F790050C
:10346000A7E0FF123897900578E0FF1238F7900533
:10347000A6E0FF1238971225D06004EFB41205E4DD
:10348000FF1217EF22121BB3788DA607121BB37819
:103490008FEFF6D39401401DE49005ADF09005AD9B
:1034A000E0C3788F96500B121BB39005ADE004F08B
:1034B00080EB7F0022788DE6FF1238F7121BB3787D
:1034C0008EEFF61238977F0D22121BB3121BB378C2
:1034D000A7EFF6139296EFA2E192A0A2E2929430A7
:1034E000E7091216B278A17601800E78A076011253
:1034F00016B64410F078A176023091047F01800264
:103500007F0078A7EFF6121BF47F0D22C2A878A0E7
:10351000E6B401037F0D2253E6FD12260730800A30
:10352000208907C2A143A510C294D2941226074352
:10353000E602121D86208009308DFA5388CF7F0263
:10354000227FF07ED8121D741225D87F0D22121B07
:10355000B3789CA607121BB3789DEFF6D394014075
:103560001FE49005ACF09005ACE0C3789D96500D3B
:10357000E4FF121BF49005ACE004F080E97F002228
:10358000789CE6FF1238F7122F1F121BF47F0D22D2
:10359000121BB3121BB390058EEFF090058D7402D1
:1035A000F0121BB390058CEFF090058B7406F07849
:1035B000A0E6640160037F012290058DE0FEA3E098
:1035C000FF122F7E90058BE0FEA3E0FF122F7E7F7F
:1035D0000D22121BB31217221224897D027F0212C0
:1035E00029E11234017D02E4FF1229E190058F12D6
:1035F000175630E7157F01121BF478A076011216DA
:10360000B64410F078A176028005E4FF121BF47F27
:103610000D22AB0512177B122489123996C2A01213
:10362000399DD221C2201216C7920E121637920F60
:10363000D2A012399D123996123401EB04121641B0
:1036400012213C788512211E123401788512211234
:1036500022121BB378961225E660037F01227F08B1
:10366000123680640D6003E6FF227896E6FF12367C
:1036700080BF0D07E4FF12397680007897E6FF22BD
:103680001239761239887897EFF62212172212240F
:10369000891233FAE4FF1229E17889A607E630E7B8
:1036A000F090054B741312164412213C78891221B4
:1036B0001E7889E69005AAF008E6A3F09005AAE036
:1036C000FEA3E0FF227D027F021229E11234017D78
:1036D00002E4FF1229E1900597EFF0E020E7E6749D
:1036E0000B12164112213C90059712212A12340127
:1036F00090059712161522121BB378A0E66401609C
:1037000008E4FF121BF47F0122789E7601E6FE0892
:10371000E6FF122F7E12368B789EA60608A607E6D5
:10372000FF121BF47F0D22121BB3121BB37855A698
:1037300007121BB37858A607121BB37854A60712BA
:103740001BB37853A607121BB37857A607121BB3F7
:103750007856A6077F0D22121BB31216D0122489A9
:103760001236C5787512211E7876E65480FFBF01A7
:1037700008E4FF121BF47F03227875E6FF121BF4A6
:103780007F0D2278A0E6640160037F01227F03128F
:103790003976123988EF640D6001227FDE123976A6
:1037A0007FAD1239767FA51239761239882278A03A
:1037B000E6640160037F01227F04123976123988A2
:1037C000EF640D6001227FDE1239767FAD1239760B
:1037D0007FA51239761239882278A0E66401600349
:1037E0007F01227F021238F77F08123897122607CE
:1037F00053E4F0C289D2A8E478A0F678A176017FDC
:103800000D22C0E0C083C082C086758600C0D09003
:10381000053AE0B401061226245388CFC2A9D0D0BD
:10382000D086D082D083D0E03278A0E664016003F5
:103830007F0122E4FF12397612398878A4EFF6BFAF
:103840000D077FF07ED8121D7478A4E6FF22D28285
:10385000C2831238B9E4900534F090053804F0E4DE
:103860007855F67858F67853F608F67856F608F64E
:103870007F0D227F04121BF4121BB3121BB39005A1
:10388000AEEFF0121BB39005AEE06005D39420407C
:10389000037F02227F0D221225C7D296C28343A541
:1038A000401225C7C2961225C712255D1225EE12B9
:1038B00025C73095FA1225C722C296D2A012399D8B
:1038C00012399D12399D12399D12399878A07603CC
:1038D00078A176027F0D227F021238F7E4FF1238BA
:1038E000977F3C7EF6121D7412393AE478A1F67F78
:1038F0000D2290057AE0FF1225C7D296C28343A518
:103900004012255D1225EE1225C722121BB3121696
:10391000D0122489121BB3122EBDBF03037F0322D2
:103920007F0D22E4FF1239307F011239307F0D22E2
:103930001238F7122F1F121BF422C2A8C2947FF470
:103940007EFF121D74D288D29474FFFFFE121D7484
:1039500022121BB3E4FFFE122F7E1216B278A1765C
:10396000017F0D2278A0E6B401047F0180027F0070
:10397000121BF47F0D22AE071238F2AF06123897F1
:103980001230EEEF20E1F9221230EEEF30E0F912C2
:1039900038F2122F1F22D2A012399DC2A0C296D295
:1039A00096C29622121BB378A5EFF61238F77F0D58
:1039B00022121BB378A6EFF61238977F0D22123031
:1039C000EE121BF47F0D22122F1F121BF47F0D220B
:1039D0007581A8021803121B59D28353A5BF4390C7
:1039E00040D2A153A5EF439010750A02750B57758D
:1039F0000802750957750E02750F57750C02750D83
:103A000057C2CAC2A8C2AD53D8BFC2CFC2897FFFB6
:103A1000121BF4121BED758159020A9822410533DD
:103A200000FFFFFFFFFFFFFFFFFFFFFFFFFFFFFFA5
:103A3000FFFFFFFFFFFFFFFFFFFFFFFFFFFFFFFF96
:103A4000FFFFFFFFFFFFFFFFFFFFFFFFFFFFFFFF86
:103A5000FFFFFFFFFFFFFFFFFFFFFFFFFFFFFFFF76
:103A6000FFFFFFFFFFFFFFFFFFFFFFFFFFFFFFFF66
:103A7000FFFFFFFFFFFFFFFFFFFFFFFFFFFFFFFF56
:103A8000FFFFFFFFFFFFFFFFFFFFFFFFFFFFFFFF46
:103A9000FFFFFFFFFFFFFFFFFFFFFFFFFFFFFFFF36
:103AA000FFFFFFFFFFFFFFFFFFFFFFFFFFFFFFFF26
:103AB000FFFFFFFFFFFFFFFFFFFFFFFFFFFFFFFF16
:103AC000FFFFFFFFFFFFFFFFFFFFFFFFFFFFFFFF06
:103AD000FFFFFFFFFFFFFFFFFFFFFFFFFFFFFFFFF6
:103AE000FFFFFFFFFFFFFFFFFFFFFFFFFFFFFFFFE6
:103AF000FFFFFFFFFFFFFFFFFFFFFFFFFFFFFFFFD6
:103B0000FFFFFFFFFFFFFFFFFFFFFFFFFFFFFFFFC5
:103B1000FFFFFFFFFFFFFFFFFFFFFFFFFFFFFFFFB5
:103B2000FFFFFFFFFFFFFFFFFFFFFFFFFFFFFFFFA5
:103B3000FFFFFFFFFFFFFFFFFFFFFFFFFFFFFFFF95
:103B4000FFFFFFFFFFFFFFFFFFFFFFFFFFFFFFFF85
:103B5000FFFFFFFFFFFFFFFFFFFFFFFFFFFFFFFF75
:103B6000FFFFFFFFFFFFFFFFFFFFFFFFFFFFFFFF65
:103B7000FFFFFFFFFFFFFFFFFFFFFFFFFFFFFFFF55
:103B8000FFFFFFFFFFFFFFFFFFFFFFFFFFFFFFFF45
:103B9000FFFFFFFFFFFFFFFFFFFFFFFFFFFFFFFF35
:103BA000FFFFFFFFFFFFFFFFFFFFFFFFFFFFFFFF25
:103BB000FFFFFFFFFFFFFFFFFFFFFFFFFFFFFFFF15
:103BC000FFFFFFFFFFFFFFFFFFFFFFFFFFFFFFFF05
:103BD000FFFFFFFFFFFFFFFFFFFFFFFFFFFFFFFFF5
:103BE000FFFFFFFFFFFFFFFFFFFFFFFFFFFFFFFFE5
:103BF000FFFFFFFFFFFFFFFFFFFFFFFFFFFFFFFFD5
:103C000080FEC3E55794165015E50FB4570BE50E2B
:103C1000B402067E007F00803A1211E580357529D6
:103C20000085542AE52A752A00F529E555422AE53A
:103C30002A4529600BD3E52A9400E5299402401B0C
:103C4000E50FB4570BE50EB402067E007F0080033B
:103C50001211E51211D67401023CDB85572B8558F1
:103C60002CE50FB4570BE50EB402067E007F0080F2
:103C7000031211E51211D6E4F0120D54E4F527F504
:103C800028C3E528952AE5279529503812132EC216
:103C9000AF75B7A575B7F1758F0175FF8075EF0624
:103CA000EF6455FE052CE52CAC2B7002052B14F5AA
:103CB000828C83EEF0E4F58FD2AF0528E52870C141
:103CC000052780BDE50FB4570BE50EB402067E0054
:103CD0007F0080031211E51211D6E4F0120D542278
:103CE000855427E527C3940B4012E527641F600C19
:103CF000E527D394205005E527B41E1AE50FB457E5
:103D00000BE50EB402067E007F0080031211E5125F
:103D100011D67401801D852756121223E50FB45762
:103D20000BE50EB402067E007F0080031211E5123F
:103D300011D6E4F0120D5422E4FFFE0FBF00010E75
:103D4000BE01F8BFF4F522787FE4F6D8FD758158FE
:103D5000023D8E02147CE493A3F8E493A34003F69F
:103D60008001F208DFF48029E493A3F85407240CBF
:103D7000C8C333C4540F4420C8834004F4568001A0
:103D800046F6DFE4800B0102040810204080901406
:103D900056E47E019360BCA3FF543F30E509541FF5
:103DA000FEE493A360010ECF54C025E060A840B8A4
:103DB000E493A3FAE493A3F8E493A3C8C582C8CA22
:103DC000C583CAF0A3C8C582C8CAC583CADFE9DEF5
:103DD000E780BE53B2FCE4F5B943B98043B9C012E1
:103DE0003D38E5B930E5FB75A90222AA57A958026A
:103DF0000F6FFFFFFFFFFFFFFFFFFFFFFFFFFF0052
:00000001FF
